:400000000080002011000000296000002960000008B5044B1A6803F53F5302331A6006F023F800BFFA46004010B5054C237833B9044B13B10448AFF300800123237010BD44
:40004000F081FF1F0000000050DA0000084B10B51BB108480849AFF300800848036803B910BD074B002BFBD0BDE81040184700BF0000000050DA0000F481FF1F0881FF1F1D
:400080000000000008B562B600F074F800F040FE01F0FEFD04F010FD05F006FA28490B46002243F8042B4A605A60264B1A70264B93F8483013F0100F02D00122214B1A70D1
:4000C000224806F00FFE1F4908780A46002342F8043B4B60043242F8043B42F8043B136008706422CA710A724A7219490A4642F8043B4B605360174A1370174A1370174A56
:400100001370174A1370174A137000F07DFE01F079FE04F071FA01F05FFE02F03FFF03F067FE03F0EDFA04F073FC03F055FD01F07DFE00F0B7FF00F0C3FD04F07FF9C2E713
:400140001887FF1FF486FF1FA887FF1FA50100000C87FF1F0A87FF1F0987FF1F2487FF1FF086FF1F0887FF1F0122014B1A7070470C82FF1F08B506F055FA074806F07EFA04
:40018000012006F0FFF906F019FE044806F0BCFE0022034B1A7008BD2CE5000069010000F186FF1F0122014B1A707047F186FF1F08B5034B1B780BB901F042FE08BD00BFFC
:4001C000F486FF1F00000000F0B597B0B44B93E803000790ADF82010090C8DF82210B14A04AB07CA83E80700AF4B93F90130032B00F23985DFE813F004001F023A031505FE
:400200000722AA4B1A7013A800F058FE0020014606F016FA13A806F0A3F9A34B1B78002B60D00022A04B1A70A04B93F90130072B53D8DFE803F0040C1014182335479C4B57
:400240001B78012B49D19B4805F0CEF945E09A48FFF7AEFF41E09948FFF7AAFF3DE09848FFF7A6FF39E0904B9B781BB901228E4B9A7032E000228C4B9A702EE08A4A92F9C0
:400280000330B3FA83F35B09D3702BB1874BB3F9020006F065FD20E0052006F061FD1CE0814A92F90330B3FA83F35B09D3702BB17E4BB3F9040006F053FD0EE0062006F020
:4002C0004FFD0AE00124784B5C700020774B587006F046FD204606F055F9734B5B78002B40F0CF8401A804A905F044F9002420E0744A04F10A0302EB840152F82300496B49
:400300000BF00EF8014616AB03EB840555F8540C0BF004F845F8540C022C08D1694B196C0AF0FCFF16AB03EB840343F8540C0134E4B2022CDCD900200B2106F081F96248E2
:4003400006F00EF9584B9B78FBB9604806F008F9534B93E803000790ADF82010090C8DF8221021E016AB03EB840555F8540C0AF04BFC49A3D3E900230AF0C4FD0AF07AFF03
:4003800045F8540C0134E4B200E00024022CE9D94F4806F0E5F84F4B93E803000790ADF82010090C8DF822100120002106F048F9494806F0D5F801980AF026FC02460B460C
:4003C0000EA807A90BF07AFF0EA806F0C9F80220002106F035F9414806F0C2F802980AF013FC02460B460EA807A90BF067FF0EA806F0B6F80320002106F022F9384806F0EE
:40040000AFF803980AF000FC02460B460EA807A90BF054FF0EA806F0A3F801200B2106F00FF9304806F09CF82F4E204D0EA83146B5F902200BF042FF0EA806F091F82B4CD4
:40044000204606F08DF802200B2106F0F9F8284806F086F80EA83146B5F904200BF02EFF0EA806F07DF8204606F07AF803200B2106F0E6F81F4806F073F8022006F07EF8F3
:40048000094BDB78002B56D095F90130052B33D0062B42D068E000BF6666666666663940B8DB00001887FF1F0C82FF1F0C81FF1FF486FF1F58DA00005CDA000068DA000042
:4004C00074DA00000488FF1F80DA000088DA00008CDA0000C0DB000090DA000094DA000098DA00009CDA0000A4DA0000A8DA0000ACDA0000B4DA000006F02AFC774B5880BD
:40050000FA2801DDFA225A80744BB3F90230092B2ADC0A22714B5A8026E006F019FC6F4B9880FA2801DDFA225A8031281CDC32226A4B5A8018E006F00BFCC0B2674B58703E
:400540001B7840B25AB2904201DD644A5370634B93F90130002B02DA0022604B5A705F4B93F9010006F0FCFB0C2006F00BF85B4B93F90130072B00F28483DFE803F0040C1F
:40058000141C242C40540020014606F059F8002005F0F4FF75E30120002106F051F8002005F0ECFF6DE30220002106F049F8002005F0E4FF65E30320002106F041F80020FB
:4005C00005F0DCFF5DE300200B2106F039F8002005F0D4FF55E301200B2106F031F8002005F0CCFF3E4BDB78002B00F04A8301200B2106F025F80D2005F0C4FF41E30220BD
:400600000B2106F01DF8002005F0B8FF344BDB78002B00F0368302200B2106F011F80D2005F0B0FF2DE303200B2106F009F8002005F0A4FF25E30722284B1A70284B1B78B1
:40064000002B6AD00022264B1A70244B93F90130072B5CD8DFE803F0040D232735393D5200231F4A53701D4A5370012005F08AFF4DE01C4B93F8483013F0100F47D004F078
:4006800041FF194C04232370002005F0E1FB6378002B3CD10022227004F070F837E01348FFF786FD33E002220D4B5A700B4B04221A700020587006F053FB012005F062FFDA
:4006C00025E00B48FFF774FD21E00A48FFF770FD1DE00948FFF76CFD19E000BF0C81FF1F0C82FF1FA887FF1FF486FF1FBCDA0000C8DA0000D0DA0000D4DA00000322AD4B37
:400700005A700022AC4B5A70012005F03BFFA94B93F90130012B40F0B4820020014605F08FFFA64805F01CFF032005F027FF0120002105F085FFA24805F012FF0220002165
:4007400005F07EFF9F4805F00BFF0320002105F077FF9D4805F004FF022005F00FFF00200B2105F06DFF994805F0FAFE01200B2105F066FF964805F0F3FE02200B2105F047
:400780005FFF944805F0ECFE03200B2105F058FF914805F0E5FE022005F0F0FE854BDB78C3B906F0D5FAC0B2834B58701B7840B25AB2904201DD804A53707F4B93F901300E
:4007C000002B02DA00227C4B5A707B4B93F9010006F0C6FA784B93F90130072B00F25182DFE803F0040C141C242C343C0020014605F026FF002005F0C1FE42E2012000214A
:4008000005F01EFF002005F0B9FE3AE20220002105F016FF002005F0B1FE32E20320002105F00EFF002005F0A9FE2AE200200B2105F006FF002005F0A1FE22E201200B2140
:4008400005F0FEFE002005F099FE1AE202200B2105F0F6FE002005F091FE12E203200B2105F0EEFE002005F089FE0AE2514B1B78002B00F0CE8000224E4B1A704E4B587812
:4008800043B2042B00F2BF80DFE803F003095C7385000120474B587005F074FEB3E0012005F070FE0025434B5D7009AC4B4A234607CA03C323F8022B120C1A70484F3E4EF3
:4008C0000EA83946B6F906200BF0F8FC20460EA90BF018FD20460BF024FD424B1B8823520EA83946B6F908200BF0E8FC20460EA90BF008FD204601F0A3FA0320294605F028
:400900009FFE394B5B791BB9384805F029FE7AE0374805F025FE284BD8680AF075F902460B460EA833490BF0C9FC334A09AB07CA03C31A8009A80EA90BF0E4FC09A801F074
:400940007FFA60E01B4A92F90330B3FA83F35B09D37053B1184BD86828490AF0E9FD0AF0ADFF00B206F0FCF94DE040B206F0F8F949E0104A92F90330B3FA83F35B09D37085
:400980002BB10D4BB3F9080006F0EAF93BE040B206F0E6F937E0074A92F90330B3FA83F35B09D37063B3044BB3F9060006F0D8F929E000BF0C82FF1F0C81FF1FD8DA0000F5
:4009C000E0DA0000ECDA0000F8DA000004DB000010DB00001CDB000028DB000034DB000040DB000044DB0000F486FF1F48DB000050DB000058DB000060DB00000000C8423A
:400A000040B206F0ADF9A04B93F90130022B40F038810020014605F013FE9C4805F0A0FD032005F0ABFD0020082105F009FE984805F096FD0120082105F002FE954805F009
:400A40008FFD954CE0680AF0DFF802460B460EA892490BF033FC0EA805F082FD0220082105F0EEFD8E4805F07BFD8E4D0EA82946B4F908200BF022FC0EA805F071FD0320DA
:400A8000082105F0DDFD884805F06AFD0EA82946B4F906200BF012FC0EA805F061FD7A4BDB78B3B906F054F9C0B26070237840B25AB2904200DD6370774B93F90130002B3A
:400AC00002DA0022744B5A70734B93F9010006F047F96D4BDB78002B58D06F4B93F90130032B27D0042B3BD0022B68D106F030F90AF0CAFC6D490AF0CFFD674BD8606C495A
:400B00000AF0D2FE10B16A4A634BDA60624BD86868490AF0ABFE10B1664A5F4BDA605E4BD86862490AF004FD0AF0C8FE00B206F017F944E006F00CF9574B1881C82801DDC9
:400B4000C8221A81544BB3F90830132B02DC1422514B1A81504BB3F9080006F001F92EE006F0F6F84C4BD880C82801DDC822DA80494BB3F90630132B02DC1422464BDA80FF
:400B8000454BB3F9060006F0EBF818E006F0E0F8C0B2414B58701B7840B25AB2904201DD3D4A53703C4B93F90130002B02DA0022394B5A70384B93F9010006F0D1F8364BF8
:400BC00093F90130042B5CD8DFE803F0030B131B23000020014605F033FD002005F0CEFC4FE00020082105F02BFD002005F0C6FC47E00120082105F023FD002005F0BEFC90
:400C00003FE00220082105F01BFD002005F0B6FC37E00320082105F013FD002005F0AEFC2FE00020014605F00BFD184805F098FC032005F0A3FC0220002105F001FD1E48A0
:400C400005F08EFC104B1B78DBB10F4D01266E700024114B5C70204606F082F8304605F091FC2C700DE00020014605F0E9FC0EA81249054B93F901200BF020FB0EA805F067
:400C80006FFC17B0F0BD00BF0C82FF1FD8DA00006CDB00007CDB00000C81FF1F58DB000084DB00008CDB000090DB00000000C8420000F0410000404098DB0000ACDB0000D6
:400CC00008B5012005F05EFC0020032105F0B8FC064805F045FC4FF47A7005F0E7FC012005F050FCFFF770FA08BD00BFC8DB0000064A1378DBB25078984203D3181A80389E
:400D0000C0B27047181A0138C0B270471082FF1F08B50020012106F00DFA0AE006F054FA38B106F04BFA20B106F06EFB0122034B9A70024B9B78002BF0D008BD1082FF1F8D
:400D400008B506F0FBFB08BD084A1378DBB252789A4209D0064AD05C0133DBB2812B00D10023024A13707047FF2070471082FF1F2887FF1F30B591B007F01CFD684606F08C
:400D8000F1FB9DF800303F2B0AD004D8182B17D0212B0DD02EE07E2B06D0842B0CD029E0012004F017FC29E0022004F013FC25E0082004F00FFC21E0202004F00BFC1DE033
:400DC00005F0D4F81AE010AA1A4412F8405C0C4A5478621CD2B2802A00D1002208490978C9B28A4203D007490D5505494A700133DBB200E00023421E9342E4D111B030BDB7
:400E00001082FF1F2887FF1F014B5A781A7070471082FF1F08B5024802F012FF08BD00BFD8DB000008B55D20FFF78AFFFFF7F2FF08BD00BF08B5024802F002FF08BD00BF43
:400E4000DCDB000008B5024802F0FAFE08BD00BFE0DB000038B5054600240AE055F8240002F086FF012C02D82C20FFF769FF0134E4B2022CF2D938BD10B504462420FFF7AA
:400E80005FFF204602F0E0FE3D20FFF759FF10BD10B50C46FFF7F0FFE0B202F0D5FEFFF7B9FF10BD38B50D461446FFF7E5FF2846214602F0F7FEFFF7ADFF38BD0346324ACC
:400EC0001278402A5AD8DFE802F021414959395959592959595959595959315959595959595959595959595959595959595959595959595959595959595959595959595925
:400F00005959595959595959595951001F4A106818609188927999809A7170471C4A106818609188927999809A717047194A106818609188927999809A717047164A10680F
:400F400018609188927999809A717047134A106818609188927999809A717047104A106818609188927999809A7170470D4A106818609188927999809A7170470A4A106853
:400F8000186092889A807047F486FF1FE4DB0000ECDB0000F4DB0000FCDB000004DC00000CDC000014DC00001CDC000010B518B9064802F045FE10BD0446054802F040FEAD
:400FC000204602F041FEFFF725FF10BD24DC00002CDC000010B50446064802F031FEE0B202F032FEFFF716FF4FF4FA7005F05EFB10BD00BF34DC000010B504461D4802F031
:401000001FFE601E0A2832D8DFE800F0060A0E12161A1E22262A2E00174802F011FE26E0164802F00DFE22E0154802F009FE1EE0144802F005FE1AE0134802F001FE16E060
:40104000124802F0FDFD12E0114802F0F9FD0EE0104802F0F5FD0AE00F4802F0F1FD06E00E4802F0EDFD02E00D4802F0E9FDFFF7D9FE10BD3CDC000044DC000058DC00007F
:401080006CDC000080DC000088DC000094DC0000A0DC0000B0DC0000B8DC0000CCDC0000E0DC000008B5024802F0CAFD08BD00BFECDC000008B5024802F0C2FD08BD00BF70
:4010C0000CDD0000F8B5604C002094F83010FFF7DFFE012094F83310FFF7DAFE022094F83110FFF7D5FE032094F83210FFF7D0FE94F848100420C1F38001FFF7C9FE94F83E
:4011000048100520C1F38011FFF7C2FE94F948100620C90FFFF7BCFE0A2094F83410FFF7B7FE0B20A16B0322FFF7BCFE0C20E16B0322FFF7B7FE94F848100D2001F00101A7
:40114000FFF7A6FE94F848101420C1F34011FFF79FFE94F848101520C1F3C001FFF798FE94F848101620C1F30011FFF791FE172094F84910FFF78CFE1820E16C0322FFF76B
:4011800091FE1920216D0322FFF78CFE1A20B4F85410FFF77DFE1B20A16D0322FFF782FE1E20216C0022FFF77DFE1F20616C0022FFF778FE94F848102020C1F34001FFF78E
:4011C00067FE642600253CE0032D30D8DFE805F0020B15243019C0B21B4B53F824100322FFF760FE23E03019174B03EB8403C0B2D9680322FFF756FE19E0A31D3719FFB26D
:40120000114A52F8230011490AF046FA014638460322FFF747FE0AE00B4B03EB8403596A301901F10041C0B20322FFF73BFE0134E4B200E00024022CC6D90A36F6B20135B9
:40124000EDB2032DF6D9F8BDA887FF1F0000614500B585B00A4802F0F3FC01A8094904F089F901A8FFF7F6FD3A20FFF769FD064B587902F0E9FCFFF7D5FD05B05DF804FB88
:4012800058DD00000C87FF1FF486FF1F10B584B0002427E0204601A900F08EFB18B90720FFF784FE33E01B4802F0CAFC062C02D0072C04D007E0184802F0C2FC08E017481C
:4012C00002F0BEFC04E004F13600C0B202F0BCFC3A20FFF735FD01A8FFF7BCFDFFF7A2FD0134E4B2072CD5D90D4802F0A9FC0D4C2046FFF7AFFDFFF795FD0B4802F0A0FC46
:40130000E06802F035FDFFF78DFDFFF7A1FF04B010BD00BF60DD000064DD000068DD00006CDD00003888FF1F74DD000010B5414802F086FC404B18788B2809D93F4802F0C5
:401340007FFC3D4B18787630C0B202F07DFC01E002F07AFCFFF76EFD374CA0793630C0B202F072FCFFF766FD20791130C0B202F06BFCFFF75FFDA078C0F11500C0B202F047
:4013800063FCFFF757FDE0785A30C0B202F05CFCFFF750FD6078C0F15E00C0B202F054FCE3797BB1FFF74EFDE079032804D01E2806D0022806D103E03020FFF7C1FC01E003
:4013C00002F042FCFFF73EFD1B4B5B7A102B03D0202B05D05BB907E03320FFF7B1FC06E03420FFF7ADFC02E03520FFF7A9FCFFF729FD114B1B7A1BB13820FFF7A1FC02E0E1
:401400003920FFF79DFC0E4802F01AFC0A4C207D02F01AFC0B4802F013FC206902F0C8FC094802F00DFCE068002102F03BFCFFF7F9FC10BD7CDD00000488FF1F84DD0000DE
:4014400088DD00008CDD000090DD000038B505460C46074802F0F4FB284602F0F5FB3D20FFF76EFC204602F0E7FBFFF7D3FC38BD94DD000038B505460C463E20FFF760FCCB
:40148000284602F0D9FB3A20FFF75AFC2046FFF78DFD38BD10B50446094802F0D1FB204602F0CAFBFFF7BEFC064802F0C9FB5620FFF746FC4820FFF743FCFFF7B3FC10BDCB
:4014C00098DD0000ACDD000070B58AB0A14A07AB07CA83E8070004A8194604F04BF83C20FFF72EFC9C4B1B78082B17D007D8012B35D07BB1022B36D0042B2CD058E0202B40
:4015000025D002D8102B0DD052E0402B2FD0802B4BD04DE0914802F093FB49E0904802F08FFB45E08C4B93F90230002B0FDB8D4802F086FB884B9B7813F0010F03D030202C
:40154000FFF7FEFB34E03120FFF7FAFB30E0864802F076FB2CE0854802F072FB28E0844802F06EFB24E0834802F06AFB20E0824802F066FB784B9B7813F0080F03D033202B
:40158000FFF7DEFB14E013F0040F0AD013F0200F03D03120FFF7D4FB0AE03020FFF7D0FB06E03220FFF7CCFB02E0744802F048FB734B93F8346016F001062DD0664B1B7B6C
:4015C00063B32EE025466F4A04F10A0302EB840152F82300496B09F0A3FE0AAB03EB840343F8240C022C08D1664B196C09F098FE0AAB03EB840343F8240C56B90AAB03EBCC
:40160000850555F8180C55F8241C09F087FE45F8180C0134E4B202E0002400E00024022CD0D91EB1584802F00BFB02E0574802F007FB04A8FFF70EFC514B93F8343013F081
:40164000020F0DD0524802F0FBFA02F0D9FA02F0FBFA2C20FFF774FBFFF74AFB02F0F4FA4C4802F0EDFA03F00FFF02F0A1FB2C20FFF766FB384B1869002102F013FB01F0CE
:40168000A1FC054603F01AFF044602F0B5FB064645EA0403034313F0FF0F2CD03E4802F0CFFA16B15020FFF74BFB8DB115F0010F02D05820FFF744FB15F0020F02D059208E
:4016C000FFF73EFB15F0040F02D05A20FFF738FB8CB114F0010F02D05220FFF731FB14F0020F02D04820FFF72BFB14F0040F02D05320FFF725FB184B1B7B1BB1013B164A39
:40170000137317E0144B1B7813F07C0F03D01D22114B1A7302E009220F4B1A730E4BDB7A13B901220C4BDA721C4802F089FA01A8FFF790FB084BDB7A1BB1013B064AD37235
:401740005FE0054B1B7813F07C0F29D01322024BDA7228E01887FF1FF486FF1FBCDD0000C4DD0000C8DD0000D0DD0000D4DD0000DCDD0000E4DD0000ECDD0000F4DD000044
:40178000A887FF1F0488FF1FFCDD000004DE00000CDE000014DE00001CDE000024DE000009221B4BDA721B4802F04AFA184CE07902F04AFA2C20FFF7C3FA207A02F044FA6D
:4017C0002C20FFF7BDFA607A02F03EFA02F000FF044600F0CFFA054604B990B10E4802F02FFA44B1012C03D15320FFF7A9FA02E04320FFF7A5FA15F0010F02D04620FFF71F
:401800009FFA3E20FFF79CFAFFF704FB0AB070BDF486FF1F2CDE000034DE000008B500EBC00000EBC00000F54070502200F062FA08BD00BF08B5014640F2AE30502200F025
:4018400059FA08BD08B500EB400300EB830000F500700C2200F04EFA08BD00BF08B500200A2100F03FFA012002495C2200F042FA08BD00BFA887FF1F30B585B0054610F02B
:40188000010F35D02E4B0A2283F83020192283F83320002183F8311083F83210012283F83420284A9A63284ADA63284A1A6400225A6483F84910264ADA64264A1A65FA2095
:4018C000A3F854004FF07E50986583F848102249196059609960DA601A615A611F4A9A61DA611A621E4A5A629A62DA62FFF7B6FF15F0020F0CD0002401940294039405E037
:40190000204601A9FFF79EFF0134E4B2072CF7D915F0040F09D04FF44070002100F0E2F940F25130002100F0DDF915F0080F04D040F2AE30002100F0D5F905B030BD00BF8C
:40194000A887FF1F0AD7233C6F12033B00007A440000C8410000FA4300007A4300A00C47000048C370B504460E4600EBC00101EBC101304601F54071502200F0D9F938B9FD
:401980000025357020463146FFF748FF284670BD012070BD38B5054640F2AE31502200F0C7F930B900242C702846FFF743FF204638BD012038BD00BF70B505460E4600EBC1
:4019C000400100EB8101304601F500710C2200F0AFF9F0B93346002403F8014B7470013303F8014B03F8014B03F8014B03F8014B03F8014B03F8014B03F8014B03F8014BB9
:401A000003F8014B1C7028463146FFF71BFF204670BD012070BD00BF08B5002000F05CF90A2806D1054801215C2200F081F910B908BD002008BD012008BD00BFA887FF1F57
:401A400038B504460D460846002109F00FFF002840F00D81632C35D9643CE4B200232EE0022C22D8032B00F2FE80DFE803F002060B17854B43F82450F5E0834B03EB84043A
:401A8000E560F0E02846814909F052FD7F4909F04FFD06347C4B43F82400E4E005F10045794B03EB84046562DDE00133DBB2092C40F2DF80042B00F0DE800A3CE4B2032B59
:401AC000CED9D0E0284609F09FF807F0BFFA09F0B1FBC0B21F2C00F2D080DFE804F010171B21273849CECECE5A5E6164CECECECECECE758A9DAEB2B5B8BCCECEBFC2022850
:401B000040F2BD80604B83F83000ACE05E4B83F83300A8E05C4B83F8310002F047FFA2E0594B83F8320002F041FF9CE038B1564A92F8483043F0040382F8483093E0524AA3
:401B400092F8483023F0040382F848308BE038B14D4A92F8483043F0400382F8483082E0494A92F8483023F0400382F848307AE038B1454A92F8483063F07F0382F8483028
:401B800071E0414A92F8483003F07F0382F8483069E03D4B83F8340065E03B4B9D6362E0394BDD635FE038B1374A92F8483043F0010382F8483056E0334A92F8483023F0F3
:401BC000010382F848304EE058B12F4B93F8483013F0100F55D043F020032B4A82F8483041E0294A92F8483023F0200382F8483039E038B1244A92F8483043F0080382F84F
:401C0000483006E0204A92F8483023F0080382F8483001F0C3F926E038B11B4A92F8483043F0100382F848301DE0174A92F8483003F0CF0382F8483015E0134B83F8490061
:401C400011E0114BDD640EE00F4B1D650BE00E4BA3F8540007E00C4B9D6504E00A4B1D6401E0094B5D64FFF7F9FD002038BD042038BD032038BD032038BD032038BD062061
:401C800038BD0A2038BD00BFA887FF1F0000704208B504F095FDFFF7BFFE38B90720FFF785F9FF20FFF7E8FDFFF70CFA08BD00BF18B1012803D102207047012070470420BB
:401CC000704700BF18B1012803D102207047012070470420704700BF08B580B204F0DEFD08BD00BF08B583B20846194604F06CFD08BD00BFF8B50E461546002411E06300C7
:401D000024B914F0800F02D0012300E0012316F8011B0B4403F0FF04471CFFF7E3FF013D3846002DEBD12146FFF7DCFFF8BD00BFF8B5064608461546002411E0471CFFF72E
:401D4000CBFF630024B914F0800F02D0012300E00123034403F0FF043070013D38460136002DEBD1FFF7B8FFA04214BF00200120F8BD00BF10B504F0CFFF08B9002400E0B0
:401D8000012404F0DDFF08B144F00204204610BD08B5002004F0B4FF002004F0C5FF08BD0C4B5B78ABB910B5044610B9FFF7F0FF0BE010F0400F02D0012004F0A1FF14F0D7
:401DC000800F02D0012004F0AFFF0022014BDA7210BD7047F486FF1F08B50020FFF7E0FF08BD00BF064B1B78022B07D010B5044602F0DAFB2046FFF7D3FF10BD704700BF84
:401E0000F486FF1F10B5084C20460021442209F0E2FD002004F12801FFF7CEFD10B90720FFF7C4F810BD00BF0488FF1F08B50248024903F09FFB08BD2088FF1F1887FF1F2E
:401E40002DE9F04F99B081469E4C20460021402209F0C1FD9C4B03CBC4F80100C4F805101B88A4F8093099F80030242B05D1012363700021A1709A4601E04FF0000A1AF095
:401E8000010B08D003238DF85F3000273E4609970797089729E200238DF85F30F5E7A4F14102D2B2192A00F2E187013318A901F8013D484616AA01F007FA002800F0D88782
:401EC000DDF85880404608F09FFE07F0BFF809F0B1F9C5B2284609F0D7FA0146404609F01DFA7A4909F024FB08F08EFE07F014F809F0A0F980B2472C03D04D2C00F0F980EF
:401F00005FE15E2D00F2B687DFE815F078007800780078006600B407B407B407B407B4075F00B407B407B407B407B407B407960096009600B000B000B407B407B407B4071F
:401F4000B407B4075F00B4075F00B407B407B407B407B407B407B4077800B407D800B407B407B600B407B407B407B407B407B600B407B407B4076600CE00CE00CE00CE00F2
:401F8000CE00CE00B407D300B407B407B407B407B407B407B407B407B407B407B407B407B407B407B407B407B407B4077E00B407B407B407B407B407B407B407B407B407C0
:401FC0009B009B005F00AA00AA0028B9089B002B40F05287012308933A4B1D701C2D03D01E2D01D05C2D6BD110B10A2840F046872844344B1870002002466CE0089B002B8D
:4020000040F03E87022308932E4B5D70262D61D1142806D01E2804D0282802D0322840F031872B4BA3FB002305EBD3036433254A5370002001224EE0113D224B5D710222AC
:4020400049E020B95A3D1F4B1D71032243E00A2840F01A875A2D00F01987002004223AE0C5F15E05174B9D70052234E0C5F11505144BDD7006222EE0089B002B40F008870B
:40208000312D06D100200F4B987108220323089321E00A2840F0FE8601220A4B9A71002008220323089316E0363D064BDD71092211E0002840F0F0860A220CE007220AE0EB
:4020C000002208E04888FF1F0488FF1F0000C842CDCCCCCC0122002840F0E08646FA02F313F0010F40F0DC86012393401E43B6B2FBE0002840F0D6861E2D00F2D586DFE89A
:4021000015F01F001F001F002C002C002C00D306D30641004100D306D306D306D306D306D306D306D306D306D306D306D306D306D306D306D306D306D306D306D3061F0072
:4021400015B1012D2DD004E00322A74B1A720B222CE0A54B1D720B2228E0042D08D0052D0BD0032D1FD110229F4B9A720C221DE020229D4B9A720C2218E000229A4B9A7202
:402180000C2213E0082D02D0092D05D00DE04022954B5A720D2209E00022934B5A720D2204E00B2202E00C2200E00D2246FA02F313F0010F40F07A86012393401E43B6B276
:4021C00093E0463C142C00F27386DFE814F01500710671061A0023002C0035007106390071064000710645004A004F007106710671065B0064006D007B4BC3F80C800023D6
:402200005AE0794BC3F81080099B43F001030993012351E0744BC3F81480099B43F002030993022348E0704BC3F81880099B43F00403099303233FE06B4B1D7704233BE05D
:40224000404609F03BFB684B1862052334E0664BC3F8248006232FE0634BC3F8288007232AE0614BC3F82C80082325E040465F4909F01AFB002840F01D865B4B83F8305098
:40228000092319E0584BC3F83480079B43F0010307930A2310E0544BC3F83880079B43F0020307930B2307E04F4BC3F83C80079B43F0040307930C231C4647FA03F212F06C
:4022C000010F40F0F98540F2613242FA03F313F0010F06D04046002109F0C8FA002840F0ED850123A3401F43BFB29DF85F3019F80340002C7FF4D3AD079B1BB1089B0BB9CE
:402300000223089307F020039BB22BB1364B1A6A374B9A4200F3D485BBF1000F14D017F0010F00F0CF85304BDB78012B33D12E4CE06808F069FC2AA3D3E9002308F0B8FC7C
:4023400008F098FFE06026E0274B9B78012B07D1089B022B1FD117F0010F00F0B5851AE0244B5B78BBB917F0010F10D01E4BDB78012B10D11C4CE06808F046FC18A3D3E92D
:40238000002308F095FC08F075FFE06003E0194B1A69154BDA6007F480739BB21BB9154BDA68114BDA62104B1B78042B08D107F040039BB2002B00F0998527F04007BFB293
:4023C000094B5B7913B1012B1DD015E002230C9301230A934FF0000B1BE000BFAFF3008066666666666639404888FF1F00007F43809698000488FF1F00230C9302230A93CF
:402400004FF0010B05E001230C9300230A934FF0020BB14BDB78012B1DD117E048FA04F313F0010F0FD004F10C05AB4B03EB8505686808F0E9FBA6A3D3E9002308F038FC9E
:4024400008F018FF68600134E4B202E00024DDF81C80022CE2D9089B032B07D19E4B9B79012B03D1079B042B40F0428513AB9B4A07CA83E8070006F400739BB273B1964B47
:40248000D879062800F23685954B9B79984205D013A9FFF791FA002800F02E858E4B1D780A2D02D05C2D72D0ADE0079B002B00F0258517F0500F00F02385874B586A08F085
:4024C000A3FB06F0C3FD08F0B5FEC0B2062800F21985814B1B7F142B08D0022B40F0148507F080039BB2002B40F0108527F05007BFB218B10138C3B20B9302E0764BDB7998
:402500000B930B987749FFF757FA002800F000854FF0000937E04C46079B43FA09F313F0010F2CD06C4B1B7F142B21D16C4B03EB890209F10C05AD002B44D069596808F010
:40254000EDFEDFF894814544696808F0E7FE08EB8908C8F81000B9F1020F10D102345E4B03EB84045E4B196C08F0D8FEA06006E0594B03EB8902526B03EB89031A6109F15D
:4025800001095FFA89F9B9F1020FC4D9D8E0079B002B00F0BF84002430E0079B234113F0010F20D04E4B03EB8403D86918AB03EB840353F8141C08F0B1FE04F10C05464BA9
:4025C00003EB8505696808F0A9FE6860022C13D104F10C05404B03EB8505414B196C08F09DFE686008E004F10C039B003C4A1A44526839490B445A600134E4B2022CCCD956
:4026000000230B939CE0089B032B51D0079B002B49D14DE04C46079B43FA09F313F0010F08D12F4B03EB8903DA692B4B03EB89035A6333E0352D31D0274B1B7913BB09F1D6
:402640000C084FEA8808264B434418AA02EB890252F8140C596808F063FE1F4B9844D8F8041008F05DFEC8F80400B9F1020F15D10C34194B03EB8404194B196C08F050FE9C
:4026800060600BE0164A02EB89020C34124B03EB84046068D16908F043FE606009F101095FFA89F901E04FF00009B9F1020FB1D91E2D03D0352D39D01C2D3FD11C2D13D12D
:4026C00006200849FFF778F9002800F0258412E066666666666639404888FF1F2C88FF1F0488FF1F5888FF1F0720AB49FFF764F9002800F01384079B93B90B9308931FE0C1
:40270000079A1A4112F0010F07D1A44A02EB8302D169A34A02EB830211610133DBB200E00023022BECD900230B9309E09C4B5B78012B00F2F58300230B9301E000230B9335
:40274000974B5C78502C04D1079B002B40F0EA8397E1089B022B40F0948124B9079B002B00F08A818DE18E4BD868002109F074F8002840F0D9838C2C00F06A8107D8022C55
:4027800013D0032C13D0012C40F07B8108E08E2C00F05E81C0F05A818F2C00F0578170E1079B002B00F06B816BE14AF0040A079B002B00F0BB83D946012303FA0BF80A9ADC
:4027C0000F92934048EA0308079B13EA080F00F0AF83734D05EB8B02704C04EB8B03506BD96908F09BFD0D900A9A05EB820504EB8204686BE16908F091FD0E9007F0800365
:402800009BB2002B00F09D8027F08007BFB2654865490C2209F0C4F8002800F08B83604BDB78012B0BD15E4CA06A08F0EDF958A3D3E9002308F03CFA08F01CFDA062584B4A
:40284000986A08F0E1F904460D460022574B08F02FFA02460B462046294608F029FA04460D460D99084608F063FE08F0CDF902460B462046294608F067F804460D460E99C8
:40288000084608F055FE08F0BFF902460B462046294608F059F808F0EDFC0446002108F0E5FF002840F04883204608F0ADF906F009FC054601F100440D980E9900F0B8FD5C
:4028C00008F0A2F902460B462846214608F01AFB08F0D0FC8046324B5B78032B01D100F100482F4B9C6A2046002108F0BFFF28B108F1004804F10044294B9C620E98414608
:4029000008F016FE01460D9808F008FD244D09F1020405EB84044FF07C5108F009FEA0600D98414608F004FE0E9908F0F9FC0F9B023305EB83054FF07C5108F0F9FDA8609B
:402940009FE0099B18EA030F00F0F88227F00E07BFB2134BDB78012B2DD129E0099B2B4113F0010F0ED0AC1C0D4B03EB8404A06808F04AF906A3D3E9002308F099F908F051
:4029800079FCA0600135EDB213E000BFAFF3008066666666666639405888FF1F0488FF1F4888FF1F2088FF1F7C88FF1F000010400025022DD2D9964D09F1020905EB8909E5
:4029C0000D98D9F8081008F0A9FC80460F9C023405EB84040E98A16808F0A0FC0146404600F026FD8046D9F80800A16800F020FD0446A8624046214608F090FC20F000459B
:402A0000284608F001F9804689467DA3D3E9002308F0DEFB002834D028464FF07C5108F043FF002840F08C82204608F0EDF876A3D3E9002308F03CF902460B464046494675
:402A400008F0C6FB002840F07D821AE04AF0100A04F17203DBB2012B01D84AF0080A079B002B00F071826B486B490C2208F098FF002800F06B8204E00023089301E0002331
:402A800008931AF0010403D027F021039BB204E027F4487323F001039BB2089A12B123F4E0539BB2002B40F0538210A800210C2208F091FFFCB136F0490340F04B82544B7D
:402AC0001B78352B02D0002B40F04682534AD3681193517A137A0B438DF8483010A84C4903F072FA034620B94A4C4B4A07CA84E80700184633E24A4B93F8483013F0020F73
:402B000024D0434B5B78013BDBB2022B01D94AF0400A079B2BB1089B022B02D14AF0800A14E03E4B5B7A102B10D13C4B1B78013BDBB2022B05D81AF0400F07D04AF0200A18
:402B400004E01AF0400F01D14AF0200A304B196A324A91619B78537013B108238DF848302B4AD1682D4B19611091D56AD868294608F072FE10B11AF0200F13D0274B587AFC
:402B800060B11AF0800F09D11AF0400F03D0002101F0C4FD02E0294601F0C0FD1C4BDA6A1E4BDA601AF0400F02D11C4BDB681193174B93F83010194A1175527A987A824213
:402BC00006D0119901F0AAFD114B9A7A134B5A72124A517A9DF848300B438DF84830137A0B4A507A834221D0FFF7FCF8084B597AC1B90022094B1A7218E000BFAFF30080DD
:402C00007B14AE47E17A743FFCA9F1D24D62503F4888FF1F2088FF1F7C88FF1F0488FF1FA887FF1FA94A137A0B431372A74B1A7A9DF8483013438DF84830A54B1B78042BA4
:402C400003D1A34B586A03F0F3F8A14A51799F4B1971D2789A70089B032B13D19C4B9B799A4A537113B90022994BDA63984BDD6B964B186C294608F0EFFD18B9934B1D64FB
:402C800002F060FC914B9B79914AD279934208D08E4B9A71283313AA07CA83E8070002F051FC8B4B1979894AD1701B78262B36D006D81C2B1CD01E2B1AD00A2B07D047E0A8
:402CC0005C2B36D0662B3CD0282B41D12CE00B9D28468049FEF7B6FD7C4B9B79AB4237D17D4B7C4A07CA83E8070002F02BFC2FE09DF8483043F001038DF84830089B1BB139
:402D0000764810A902F0A4FE724D284610A902F09FFE734B95E8070083E8070018E006206F49FEF78FFD13E007206D49FEF78AFD0EE06C4B694A07CA83E8070002F002FC31
:402D400006E0684800210C2208F045FE02F0FAFB5F4B5B785D4A1370502B46D0089A022A43D1012B05D15D4810A902F071FE002030E05BB99DF8483043F001038DF84830EC
:402D8000564810A902F064FE002023E0023BDBB2012B14D8514B53F80C2C0092CDF804B00A9A02920C9A0392CAF380020492184610A94B4A243B02F073FE00200AE09DF8E4
:402DC000483043F004038DF84830444810A9524603F05EF828B9424B404A07CA83E8070003E0012801D1FFF721F8394B187A374BD871002800F0B38001F0D6FB334BDB7916
:402E0000032B09D1384B1B78022B2AD0082002F0E1FB01F0FDFA24E02C4B01221A7000221A71DA705A709A715A721A722E4B6422DA711A725A721B78022B0FD00020264953
:402E4000FEF7BAFD002800F0898002F07BFB0020002101F039FC0020FEF7A2FF0820FEF7CBF80022194BDA71204678E0012076E0022074E0142072E0182070E014206EE014
:402E800018206CE014206AE0142068E0142066E0182064E0142062E0142060E017205EE015205CE017205AE0142058E0152056E0142054E0262052E0192050E004204EE0EB
:402EC0001B204CE016204AE0162048E00488FF1F4888FF1F5888FF1F2C88FF1F7C88FF1F2088FF1F3888FF1FF486FF1F1C2036E0252034E01D2032E0072030E01A202EE06E
:402F00001C202CE01D202AE0142028E0142026E0072024E01A2022E0072020E007201EE01E201CE01F201AE0162018E01A2016E0202014E0212012E0222010E023200EE03E
:402F400021200CE021200AE01A2008E0212006E0242004E0102002E0102000E0072019B0BDE8F08FAFF3008008B5074B1B78012B09D0064B1B7813F0FF0F04D102F0F6FFD8
:402F8000012002F03BFD08BDF486FF1F2487FF1F08B503F039FD03F0D7FC08BD08B5074B93F8483013F0080F05D003F01FFD044803F0BCFC08BDFFF7EBFF08BDA887FF1F71
:402FC000692F000008B503F00BFD08BDA74B5B78002B40F04A812DE9F04F89B0804605930693079306228DF81C209A464FF000092CE05046FEF75CFE08AB534403F8100C4F
:4030000048FA0AF313F0010F1CD0484607F0FCFD06460F46964B03EB8A03586A07F0F4FD0022944B07F044FE04460D463046394622462B4608F0CCF820B92046294608F026
:4030400019F981460AF1010A5FFA8AFABAF1020FCFD9874BD3F850B001254FF0030A00E09A4601A8844902F085FA00263446334636E01A4648FA03F111F0010F2ED001366F
:40308000F6B200207C4941F82300794991F84910194111F0010F0ED03DB109F1004008A901EB830141F81C0C13E008A901EB830141F81C9C0DE02DB108A901EB830141F866
:4030C0001C9C06E009F1004008A901EB830141F81C0C08A90A4412F8102C14430133DBB2022BC6D9304607F06DFD05F0EBFF06460F46584607F088FD32463B4607F0D8FD17
:4031000008F0B8F8594EB471059001A805A900F0D7FB0423337101F0F3FC01F015FBB5B1FFF750FF00230EE008AA1A4412F8102C224206D040FA03F111F0010F01D024EA57
:4031400002040133DBB2022BEED9484B9C7101F0D7FC4A4B1B7813F0340F2CD0474B1C78E4B214F0100F02D0062002F047FC14F0200F02D0072002F041FC3DB9FFF722FF52
:4031800010EA080F02D0082002F038FC2DB114F0040F02D0092002F031FC394B1B7813F0FF0F04D002F0E2FE01F032F95AE0042002F01AFC02E014F0070FB0D101F028FCED
:4031C0002B4BB3F8540003F071FA95F0010508D0274CA06D2B4908F0ABF98146D4F84CB004E0234BD3F85890D3F850B00AF1FF33DBB2BAF1000F7FF433AF00242DE0254645
:4032000048FA04F313F0010F25D0194B93F84930234113F0010F0FD0154E06EB8403586AB16D08F07DF856F8241008F081F907F0EBFC05F029FE0BE00D4B986D00F1004000
:4032400053F8241008F074F907F0DEFC05F01CFE094B43F825000134E4B2022CCFD90022024B1A7109B0BDE8F08F7047F486FF1FA887FF1F0000F8BF1887FF1F0987FF1FA0
:403280002487FF1F0000A04008B502F083F9C0B10C4B0122DA701B78082B0BD1082002F099F901F0B5F8074B5B7853B9054B1B78002BF6D102F05AFE022002F09FFB01F02A
:4032C000A7F808BDF486FF1F2DE9F04791460B78C218541CC35C2D2B03D1941C5378012706E02B2B03D1941C5378002700E000270022154616469646303BDBB2092B0FD872
:403300000135EDB2082D07D80AB1013EF6B20EEB8E0E03EB4E0E07E032B90136F6B203E0FE2B04D11AB9012223780134E4E7002D47D088468246704608F0A2F80546002172
:4033400008F08AFA68B12CE0284607F05DFC1EA3D3E9002307F0ACFC07F08CFF05460236F6B273B2B3F1FF3FEEDB16F0800F0BD0284607F049FC16A3D3E9002307F098FCF5
:4033800007F078FF05460CE073B2002B09DD2846114908F0CDF80546013EF6B273B2002BF5DC27B105F10045C9F8005001E0C9F80050CAEB0404013C88F800400120BDE8C4
:4033C000F0870020BDE8F0877B14AE47E17A843F9A9999999999B93F00002041AFF3008038B50D46104908F0A3F807F00DFC05F0EFFB07F01FFF80B211E00C4B5B7893B9AD
:4034000015B901F005F806E000F01CFD074B9B7813F0020F07D1322003F048F92046431E9CB20028E9D138BD0000A041F486FF1F38B50C46014608F07BF80546204621469C
:4034400008F076F80146284607F06AFF0446204607F0DAFB05F036FE07F00CFF38BD00BFF8B505460027002411E055F824603046002108F0F1F940B93046314608F058F8CA
:403480000146384607F04CFF07460134E4B2022CEBD9384607F0B8FB05F014FE07F0EAFE07464FF07E50394608F0F6F80646002408E055F82400314608F03AF845F8240063
:4034C0000134E4B2022CF4D93846F8BD2DE9F04180460F460E4E002415E057F824502846002108F0B9F960B958F82400294608F0D3F820F000452846314608F0D5F900B988
:403500002E460134E4B2022CE7D93046BDE8F0819976967E034600B91023581EC0B2704770B504460D4616460846114608F0BCF928B13046314607F0FBFFA06104E0284661
:40354000294607F0F5FFA061656AA069294608F0ABF900B1A56170BD0130C0B2102800D1002070472DE9F8435E4C2078FFF7D2FF05466678B04200F0B38004F104083423B6
:4035800003FB00F398441C44E769206A014607F0C7FE616A07F0CCFF04463846214608F065F900B13C4634234E4A03FB05239C612846FFF7AFFF0446864247D1494B93F84F
:4035C0004433984246D101F081FA43E02646454F3B1D342505FB04352046FFF79BFF044697F84433984201D101F070FA34233D4A03FB0623DF699869394608F02DF920BBD7
:40360000D8F814903423374A03FB0628D8F82000014607F085FED8F8241007F089FF0146484607F07DFE80463846414608F03CF930B134232B4A03FB0626C6F8188004E08E
:403640003422284B02FB0636B761A846254B5B789C42BBD1234F78780437342303FB0077FFF77AFF044637E025461E490E1D342202FB04F31E44D7F814800B44D3F818908E
:403680004046494608F0F2F8B0B1F869014607F047FE396A07F04CFF0146404607F040FE07464846394608F0FFF828B10D4A342303FB04239F61547034220A4B02FB05334E
:4036C0009869D96908F0C8F808B1064B5C702046FFF742FF04463746024B1B789C42C3D1BDE8F8831482FF1F044B002283F844231A70012183F845135A7070471482FF1F68
:4037000008B5094B0022C3F84823C3F84C23C3F85023C3F85423C3F85823C3F85C23C3F86023FFF7E1FF08BD1482FF1F10B5094B1A7893F84443A2420BD02046FFF70CFFC6
:40374000044B5B789C4201D1024B5870014B83F8440310BD1482FF1F034B13F8042B342000FB0230704700BF1482FF1F064B1A7893F844339A4204D03420044A00FB03204B
:4037800070470020704700BF1482FF1F1882FF1F10B5074C94F84403FFF7DEFE2378984204D0342202FB0040806910BD002010BD1482FF1F054B93F8442393F845339A423F
:4037C00001D1012070470020704700BF1482FF1FF8B50446C56A437C13F0010F15D0224B187A07F0FFF91EA3D3E9002307F060FA06460F46284607F007FA32463B4607F022
:4038000057FA07F037FD04461EE013F0040F14D1154BD87907F0E6F911A3D3E9002307F047FA06460F46284607F0EEF932463B4607F03EFA07F01EFD0546A46A2046294622
:4038400008F014F800B92C4620464FF07E5108F02BF810B94FF07E50F8BD2046F8BD00BF7B14AE47E17A843FF486FF1FAFF30080F8B50F4B93F844530E4F11E034230E4CA1
:4038800003FB05442046FFF7A3FF0646204631463A46FFF745FE2846FFF75EFE05463746034B1B789D42E9D1014BC3F86073F8BD1482FF1F9976967E1882FF1F00000000C1
:4038C0002DE9F0478CB081468A46BB4EB04618F8045B342202FB05F4A0444046002108F07AF89AF8083034446375DAF80420626313F0020F06D0B14A06AB07CA83E807004B
:40390000002445E006ABAE4A07CA83E80700F7E7AC4F59F8240057F8241007F009FE07F073F905F0B1FA0CAB03EB840646F80C0C56F8183CC01A80EAE072A2EBE0729E49FD
:4039400005EB450305EB8303234401EB83035A60342303FB051319698A4238BF0A461A6107F092FD57F8241007F096FE46F8240C002107F07BFF48B12046FEF7A3F93423AE
:403980008D4A03FB05231A7D104318750134E4B2022CBDD93423884A03FB05231B69002B00F0F98003A8FFF75BFD3423824C03FB05446062844E304603A9FFF787FD206286
:4039C000A6F10C0003A9FFF781FDE062647D14F0010F05D03423784A03FB0523186312E0DAF800003423744A03FB0523186314F0080F08D0342303FB052303F12C06596A6B
:403A000007F096FD70606C4B1A7893F844339A4202D014F0020F23D03423674A03FB052300229A619A6289E0634B03EB8403D3F854730CAB03EB840656F824AC3846514664
:403A400007F076FD0146484607F068FC81465046394607F063FC46F8300C0134E4B202E04FF000090024022CDED9484607F0CCF806460F464CA3D3E9002307F0A9FB30B1CE
:403A800034234D4A03FB052300229A6256E03046394647A3D3E9002307F07CFB30B13423454A03FB0523494A9A6247E06846FFF7D7FC454C20466946FFF708FD81460020D0
:403AC000434932463B4606F03FFF06460F463046394600223F4B07F0EBF805F0F3FA07F0C9FB0646206A494607F022FD314607F01FFD0446304607F087F802460B46002060
:403B0000334906F021FF06460F46204607F07CF832463B4607F0F6F906460F460022002307F038FB20B93046394607F0A3FB00E000203423204A03FB0523986234221E4B8F
:403B400002FB05356B7D13F0020F26D14046FFF73FFE0546184C40462946D4F86023FFF7DFFCC4F8605304F5557303AA07CA83E8070004F552730CAA12E9070083E8070096
:403B800094F845032070FFF7E7FC84F84503FFF7E9FC012002E0002000E001200CB0BDE8F08700BFAFF30080E90B21E7FDFFEF3FE90B21E7FDFFEFBF1482FF1F1887FF1F0F
:403BC0005C85FF1FA887FF1FC087FF1F9976967E0000F03F0000E03F002309E0064A52F82310064A02EB8302C2F848130133DBB2022BF3D9704700BF1887FF1F1482FF1F52
:403C0000064B187893F84433984203D3181A0F30C0B27047181A0138C0B270471482FF1F08B500F053FF034B93F844235A70FFF799FC08BD1482FF1F08B503F031FC08BD60
:403C400008B503F02DFC08BD38B563280BD9144BA3FB0023DB0803EB83025200801A3030C4B2D8B200E0002409280BD90C4BA3FB0023DB0803EB83025200801A3030C5B23E
:403C8000D8B200E000253030C0B2FDF759F815B12846FDF755F814B12046FDF751F838BDCDCCCCCC70B584B006460D46002107F0DDFD20B12D20FDF743F806F100462C4675
:403CC00006E03046264907F033FC0646023CE4B2012CF6D824B13046224907F029FC064630464FF07C5107F01BFB07F0E7FD002410E0621C1C4BA3FB0013DB08194603EB56
:403D000083035B00C31A04A80444303304F8103C0846D4B20028ECD106E0631C04AA1444302204F8102CDCB2AC42F6D314D1631C04AA1444302204F8102CDCB20CE0AC42D7
:403D400002D12E20FCF7FCFF013C04AB234413F8100CFCF7F5FFE4B2002CF0D104B070BD0000C84200002041CDCCCCCC0000000008B50D4B93F8483013F0010F0CD006F0D6
:403D800043FF07A3D3E9002306F092FF07F072FA0421FFF787FF08BD0321FFF783FF08BD6568E1575128A43FA887FF1FAFF3008008B50D4B93F8483013F0010F0CD006F0BA
:403DC00023FF07A3D3E9002306F072FF07F052FA0121FFF767FF08BD0021FFF763FF08BD6568E1575128A43FA887FF1FAFF30080704700BF704700BF08B502F013FE08BDAC
:403E000008B5FFF7F9FF60B10022064B1A70064B064A07CA83E80700054A137843F04003137008BD0A87FF1F0C87FF1F1887FF1F0987FF1F08B5FFF799FC10B1022001F066
:403E4000C9FB08BD10B5A14B1B7803F0FF04B3B101229F4B1A7060B2FDF7BCF8013CE4B2012C0AD80120FDF7C7F8102001F0BCFD984B1B7813F0100FFAD001F0C7FD954B43
:403E80001B7803F0FF04002B00F0118114F0100F03D001228E4B5A7010BD14F0010F04D0FDF712FB012001F09FFD14F0E80F6AD0874B1B7813F0030F53D113F0280F14D0BB
:403EC000834B9B7813F0C00F0FD100F0FFFD804B02221A711B78202B07D114F0800F04D17B4A937863F07F039370794B1B7813B90121774A917014F0400F07D013F0200FA0
:403F000004D173498A7842F040028A7014F0080F05D013F0E00F02D110226D4B1A7014F0200F1ED00620FDF767F8694B9B7813F0800F11D1664A1278402A08D113F0080FEB
:403F400005D003F0E30343F0020361498B70802A02D040225E4B1A705D4A937843F02003937014F0800F0BD0594B1B78012B04D1574A937843F0050393708022544B1A703F
:403F8000E82001F031FD14F0020F4AD014F0680F44D14F4B1B78402B12D14D4B9B7813F0200F0DD113F0100F03D00022484B1A7006E013F0040F03D043F00803444A937013
:403FC000434B1B783BB113F0100F27D0404A927812F0010F22D0102B07D13D4B9B7A23B143F008033A4A937218E00022384B1A71FFF7BCFB70B1364B9B7813F0400F09D102
:40400000334B00229A7008221A7000F079FD00F09BFB03E02E4B00229A701A70022001F0E3FC14F0040F42D0294B1B7813F0D00F18D0274BDB78ABB9254B93F90230002BB6
:4040400010DBFFF7EDFD224B1B7913F0020F04D01F498A7842F001028A7023F006031C4A137121E01A4B93F90230002B0ADA0022174B1A71FFF744FB00F0CAFCFDF7D6FEF8
:40408000FFF7AAFD124B9B7813F0200F08D003F07F030F4A43F0010393704023137003E00B4B00229A701A70042001F09DFC0A4B1B7803F0FF04002B48D001F0B9FC044B48
:4040C000DA7914F0010F09D1134608E02487FF1FF486FF1F0987FF1FF086FF1F642314F0020F01D00A33DBB214F0040F01D00A3BDBB214F0080F01D00133DBB214F0100FDA
:4041000001D0013BDBB2C82B28BFC8230A2B38BF0A234349087A14F0200F01D1014600E0642114F0400F00D0322114F0800F00D019219A4201D1814208D0394AD371117262
:404140000023D372FFF794FBFFF76AFD354B1B7803F0FF04002B5AD001F072FC304B5A7A14F0010F01D1134600E0642314F0020F01D00A33DBB214F0040F01D00A3BDBB2D9
:4041800014F0080F01D00133DBB214F0100F01D0013BDBB2C82B28BFC8230A2B38BF0A239A4207D01E4A117941F00801117153720023D37214F0200F11D0194B1B78102BA3
:4041C0000DD1174B9B7A1BB90222154B9A7206E013F0010F03D043F00403114A937214F0C00F14D00E4B1B7813B113F0180F0ED00D4B1C7A14F0400F02D004F0BF0401E086
:4042000044F040042046FDF7CBFD074B1C72044B1B7813F0FC0F01D000F072FC10BD00BFF486FF1F0887FF1F0488FF1FF8B5FFF79DFA28B9734B5C7A1A7A1443DD6801E0AA
:40424000447C056B704B93F8483013F0020F00F0D380202001F0E2FBCEE06C4A5278002A40F0CF8013F0010F00F0C480674A127812F0C00F73D013F0040F10D1634E0027AF
:40428000B7723846002100F01FFA3846FDF788FDB37803F0FD0343F00403B370AAE0802A13D10B20FCF7A8FE0020002100F00CFA0020FDF775FD00F061FA01E0FFF7C2FD41
:4042C000524B5B78002BF9D0F8BD402A07D101F019F920B94D4A937823F0200393704B4B9B7813F0080F00F08580464A527AC2B113F0020F15D1444B93F8483013F0020F85
:4043000005D0424A137943F00803137109E004F03000294600F0D8F94FF081400121FFF75FF8384B1B7A6BB1384B9B7813F0020F08D104F04000FDF733FD4FF07E500121E4
:40434000FFF74EF8314B9B7813F0020F52D143F010032E4A9370022001F03CF94AE02B4B9B7A002B37D013F0020F0ED0254B5B7A3BB10020002100F0A7F90122234B9A72BA
:4043800038E00022214B9A7234E013F00C0F31D01C4B5B7A9BB10A20FCF72EFE1A4B93F8483013F0020F05D0184A137943F00803137104E004F03000294600F085F9134B03
:4043C0009B7A13F0080F02D0022001F003F900220E4B9A720EE00D4B1B7913F0080F09D004F03000294600F06FF9084A137923F008031371FFF726FD044B9B78002B7FF4D5
:404400002CAFF8BD0488FF1FA887FF1FF486FF1F08B5FFF717FD074B9B780BB1FFF706FF054B1B7823B1FBF7CFFE0022024B1A7008BD00BFF486FF1FF186FF1F38B5554BCD
:4044400093F8483013F0080F08D0FEF7BBFD28B10122514B1A700720FCF7CEFD4E4B1B7813F0810F08D00220FCF7C6FD01224A4B1A7000252C467FE00022474B1A7001F0BD
:4044800041F830B1454A137843F020031370FFF7BFFF434801F038F8EBE70A2801D00D2837D1FFF7B5FF3C4B5B78002B70D100223B4B5A5514F0010F05D00B20FCF776FD3C
:4044C00000252C4650E0364B1B782BB90020FCF76DFD00252C4647E0242B07D1304801F083F8FCF763FD00252C463DE02A4B1B7813F0210F05D00920FCF758FD00252C4698
:4045000032E02748FDF79CFCFCF750FD00252C462AE03CB1292827D114F0020F24D004F0FD0421E020281FD92F281DD0282802D144F0020418E03B2802D144F0040413E01A
:404540004E2D02D944F001040EE0A0F16103DBB2192B05D86B1C2038114A5055DDB203E06B1C0F4A5055DDB20E4B1B7823B1FBF72BFE00220B4B1A70FCF7E6FBFF288CD181
:40458000FFF758FCFFF744FF034B5B78002BF3D038BD00BFA887FF1FF486FF1F0987FF1F7885FF1FF186FF1F08B5FFF743FCFFF72FFF064B5B783BB9FFF7D8F80028F6D18F
:4045C000024B1B78082BF2D008BD00BFF486FF1F08B502F0B5FA034628B102F0A9FA08B1022300E00123184608BD00BF08B5002002F03EFA08BD00BF08B502F07FFAFFF748
:40460000F5FF08BD08B502F033FA08BD0000000070B50646284B587A06F0E4FA24A3D3E9002306F045FB04460D46304606F0ECFA22462B4606F03CFB06F01CFE06461F4BFF
:404640005D6C1C6C2846214607F024F920B93046214607F01FF918B1174B1C61FF2070BD3046294607F00CF968B13046002107F0F3F820B10022104B1A61002070BD0E4B65
:404680001D61012070BD0C4B1E613046294606F045FE002106F04CFF06F0B6FA04F068FB0022074B06F052F906F0C4FDC0B270BD7B14AE47E17A843FF486FF1FA887FF1F49
:4046C0000000F03FAFF3008038B5124B5B78FBB904460D4628B900220E4B1A61FFF786FF13E0102814BF0020012002F015FA0A4B93F8483013F0020F02D0202C00D10025E9
:404700002846FFF785FFFFF77DFF0022014BDA7238BD00BFF486FF1FA887FF1F38B5064B1B78022B07D00C460546FFF73DFF28462146FFF7C9FF38BDF486FF1F0130C0B265
:40474000052800D10020704708B5012002F070F9084A92F828309373074B93F83030023B03EB4303DB00DB085B42537302F064FA08BD00BFC885FF1FA887FF1F08B502F0E7
:40478000FBF900220D4B83F829200D4B93F83300FF2808D10B4B1B7813F0FF0F03D10A4B1B78802B05D1084B1B78042B01D001F07DFF002002F03CF908BD00BFC885FF1FF1
:4047C000A887FF1F2487FF1FF486FF1F10B502F0EDF9724B93F8293013F0FF0F40F0DC806E4CE07B02F082F8A07B02F06BF8012384F8293002F020FA636A002B47D194F89E
:404800002B2094F82A30934234D094F82B2004F12C0303EBC2036362588802F0CDF9626A1388A383A17F137999420CD0A37704F15C0003EB83039B0003442362DB685B0887
:40484000A36063602360554B196A0C7C93F8C0006040D87308685479E040186148685479E040586189685079C14099619079FFF7C9FE0CE0FFF782FF484B1B6A5B7C13B151
:404880000020FFF7BFFE042000F0A4FE10BD444B1B78DBB2012B01D1FFF7B2FA3F4900238B730A690B681A440A600B6AD9688A4212D93A4901208873D868121A0A601A7C84
:4048C00012F0010F04D037490A68013A0A6003E034490A6801320A60304948694A6802444A60D9688A4214D92C49887B40F002008873D868121A4A601A7C12F0020F04D0CE
:4049000028494A68013A4A6003E026494A6801324A60224988698A6802448A60D9688A4214D91E49887B40F004008873D868121A8A601B7C13F0040F04D01A4A9368013B0B
:40494000936003E0174A936801339360164B1B78042B05D1144B9979104A937B0B4093730E4A938B013B9BB2938363B9536292F82B300133DBB282F82B30062B03D1002233
:40498000064B83F82B20054B997B93F828204A409A73002283F8292010BD00BFC885FF1F0A87FF1F1887FF1FF486FF1F38B5164B002483F8284083F8C04022E0134B93F876
:4049C00031302546234113F0010F08D02046FDF76FF90D4A92F82830184382F828000B4B93F832302B4113F0010F08D02046FDF769F9054A92F8C030184382F8C0000134BB
:404A0000E4B2022CDAD938BDC885FF1FA887FF1F10B5FFF7B3FE274C0023C4F8C430C4F8C830C4F8CC30C4F8D030C4F8D430C4F8D830C4F8DC30C4F8E030C4F8E430C4F8D4
:404A4000E830C4F8EC30C4F8F030C4F8F430C4F8F830224642F8043B6360043242F8043B42F8043B42F8043B42F8043B42F8043B42F8043B42F8043B1360C4F8FC3084F8A6
:404A80002B3084F82A30012284F8002184F82930FFF78CFF94F8C030E37394F8280040F0070001F00FFF94F8C00040F0070001F01DFF10BDC885FF1F08B501F009FF02482B
:404AC00002F0E8F808BD00BFCD47000038B50A4BD3F8FC507DB11C4693F8C53043F0010384F8C530D4F8E000014606F021FD68610023C4F8FC3038BDC885FF1F0000000000
:404B0000B44B1B7913F0010F00F0AB847047B24BD3F8FC30002B40F0D981AE4B1B7913F0040F05D0FEF718FEAB4BC3F8FC0004E0FEF71CFEA84BC3F8FC00A74BD3F8FC408A
:404B4000002C00F09A8493F8C53013F0010F04D00022A14B83F8C52073E09F4D95F8C400FFF7ECFD85F8C40005F15C0200EB800080000244C5F80421237C1374002306E0E0
:404B800054F82310C90042F823100133DBB2022BF6D9E368DB00D360E06806F071FC8E4DC5F8CC00216A06F077FD0146C5F8D0008A4806F071FDC5F8D4000023C5F8C830B3
:404BC000844B1B7913F0020F04D195F8C53013F0080F0FD0804DD5F8E810C5F8E010084606F0A6FC606195F8C53023F0080385F8C5300AE06469204606F006F804F062FA95
:404C000006F038FB744BC3F8E000734BD3F8044100236374724B93F8483013F0020F10D06D4BD3F8FC305A7C12F0200F09D04FF07E50D96A06F030FD674BC3F8F4000123EE
:404C40006374654B0022C3F8DC20D3F8FC40E6694FF07C50314606F01FFD05465D4B1B7913F0020F31D002225B4B83F8D820276A64692046294606F05BFC0146384606F0D6
:404C80004DFB0546002106F0F1FDB8B13046314606F046FB0146384606F04AFC0146204606F03CFB0446204605F0AEFF04F00AFA06F0E0FA484BC3F8E80002E1464BC3F875
:404CC000DC500022C3F8E820FBE0434A002182F8D810216AC2F8EC1013F0040F03D00024C2F8E8400CE0FEF753FD0446204605F08BFF04F0E7F906F0BDFA374BC3F8E80082
:404D0000354ED6F8FC00FEF763FD8246014606F00FFC0746D6F8FC60D6F820B0D6F814804046214606F0FAFA294606F001FC0146584606F0F5FA4FF07C5106F0F9FB81468A
:404D40003846414606F092FD00284BD04046394606F0E4FA294606F0EBFB0146584606F0DDFA1D4BC3F8EC00002106F089FD00B3194C022384F8D8307569F069014606F0AF
:404D8000CFFA316A06F0D4FB0146284606F0C6FA0546284605F038FF04F094F906F06AFAC4F8E80094F8C53043F0080384F8C53087E03846214606F0B1FA294606F0B8FBC6
:404DC000054BC3F8F000C3F8E4A0032283F8D82077E000BFF486FF1FC885FF1F0000A03FA887FF1F4846002106F05EFD002860D05846494606F058FD002855D0384621469A
:404E000006F08CFA294606F093FB0146AE4BC3F8F000484606F048FDE8B1AB4BC3F8E4A074692046394606F017FD20B10122A64B83F8D82045E03846214606F06FFA294685
:404E400006F076FB0146A04CD4F8EC0006F066FAC4F8EC0035E09C4DC5F8EC90C5F8F090F06905F0D1FE02460B4605F06FFD06460F46484605F0C8FE02460B4630463946DF
:404E800005F016FF06460F46204605F0BDFE02460B463046394605F059FD04F013F906F0E9F9C5F8E4000CE00222874B83F8D82007E0854B0022C3F8EC20D3F8E820C3F85C
:404EC000E420824A137943F0080313717E4B93F82A20079293F8C41003EBC20282F83010D3F8FCA0DAF8202006921046D3F8D41006F014FA0390002106F0B8FC08B100233E
:404F00000393DDF81890DFF8CCB100230193CDF808B06D4B93F8D830012B00F0DD80002B64D0032B40F0FA80DAF81C00594606F0FFFA8046644CD4F8E06005F065FE002263
:404F4000634B05F0B5FECDE90401304605F05CFEDDE9042305F0F8FCCDE90401584605F053FEDDE9042305F0A3FE06F083F905464846294606F0D2F90746D4F8EC904846C5
:404F8000394606F091FC20B92846002106F078FC18B30698494606F0C1F905F035FE02460B4605F0D3FC04460D46474FD7F8E4803046414606F0B4F905F026FE02460B4638
:404FC0002046294605F09EFF06F054F98346012387F8D830C7F8E08009E13046414606F09DF9394BC3F8E000B94600E1DAF81C00594606F09DFA8046334FD7F8E06005F09C
:4050000003FE0022324B05F053FE04460D46304605F0FAFD22462B4605F098FC04460D46584605F0F1FD22462B4605F041FE04460D46484605F0E8FD22462B4605F084FCAB
:4050400006F018F98146D7F8EC703846494606F02BFC88B30698394606F060F905F0D4FD02460B4605F072FC04460D46DFF85890D9F8E4803046414606F052F905F0C4FD1F
:4050800002460B462046294605F03CFF06F0F2F883463846D9F8F01006F0DEFB18B1022289F8D82003E00122074B83F8D820064BC3F8E080B9469AE04046314606F030F959
:4050C000014BC3F8E00092E0C885FF1FF486FF1F0000E03F3EC32E39AD4CD4F8E4603046594606F025FA0146484606F017F90546D4F8F0402046294606F0D6FB002875D06F
:405100004846214606F00AF9314606F0C5FA834602229F4B83F8D820A14668E0DAF81C00594606F005FA0546994BD3F8E0402046294606F0B9FB002834D0284605F064FDD1
:405140000022944B05F0B4FD06460F46204605F05BFD32463B4605F0F7FB06460F46584605F052FD32463B4605F0A2FD06460F46484605F049FD32463B4605F0E5FB06F016
:4051800079F80646824BD3F8DC00314606F06EFB40B12046294606F0C1F87D4BC3F8E000B14624E07A4DD5F8DC804846414606F0B5F805F029FD02460B4605F0C7FB0646B6
:4051C0000F46D5F8E8902046494606F0A9F805F01BFD02460B463046394605F093FE06F049F88346C5F8E090C14600E0A9460198594606F095F80190029906F037FB28B17D
:405200000298019906F08AF8834613E04846039906F04AFBB8B1029805F0F6FC5AA3D3E9002305F093FB06F025F80290019906F075F88346564BD3F8DC00494606F016FB0F
:4052400000287FF466AE524BD3F804315B7C23B9514A127912F0080F26D09AF8112012F0300F15D0DAF830405BB1494BD3F8E000D3F8F41006F05CF90146204606F058F976
:4052800004462046FFF7C4F9414B83F8F80006E00022414B1A6100223D4B83F8F8203E4A137923F008031371394E96F8F830079A06EBC20888F83230D6F8D000494606F0EC
:4052C00037F9054605F0A0FC03F082FC05F0D2FF0446D6F8CC0005F097FC03F079FC05F0C9FF0646214606F019F806F00DFB87B2A8F82C704FB9284B1B7913F0020F04D0B6
:4053000043F00103244A1371B7E0214BD3F8C800019906F005F880463046294605F0FEFF0146404606F0B8F906461C4906F000F905F06AFC03F04CFC05F07CFF40F6B7334A
:40534000984207D8124B079A03EBC203002283F8312035E041F26F73984207D80C4B079A03EBC203012283F8312020E042F6DF63984215D8064B079A03EBC203022283F8D3
:40538000312014E0AFF30080A5E2ECC367D8253FC885FF1F0000E03FF486FF1F50A9AB4E374B079A03EBC203032283F83120344B079A03EBC20393F83120D04097409F8518
:4053C000B0F5803F05D22E4B079A03EBC203D88506E02B4B079A03EBC2034FF6FF72DA85274A92F8003182F82A300133DBB282F80031062B03D10022214B83F80021204F79
:40540000D7F8FC30C3F82090C7F8CC402046294605F084FF314606F08BF8C7F8C800D7F8DC00494606F018FAF0B14846002106F03BFA28B1134A137943F0010313711CE041
:40544000104B1B7913F0040F04D043F001030D4A137112E000220A4BC3F8FC20FEF766F902E02DE9F04F89B0054A92F82B30DBB292F8002193427FF44AAB09B0BDE8F08FB7
:40548000C885FF1FF486FF1F054B1B7813F07C0F03D0044BD3F8E00070470020704700BFF486FF1FC885FF1F08B5034801F070FA01F088FA08BD00BFC554000008B501F03A
:4054C0007BFA08BD08B5FFF7F9FFB0B110F0010F02D000F04BFD10E010F0040F05D0084A137843F00203137007E010F0020F04D0034A137843F00803137001F057FA08BD70
:405500000987FF1F0020704738B50546002416E020462946FCF726FA30B900232B7028460721FBF7A7FF08E02B7833B12846FCF787FC01462846FBF79DFF0134E4B2012C49
:40554000E6D938BD08B5FFF72FF80022014B1A7308BD00BFF486FF1F10B50C4650F8210005F092FF024B53F8241006F095F810BDA887FF1F70B506460D46002407E02846DA
:405580002146FFF7E9FF46F824000134E4B2022CF5D970BD70B50646002410E056F824502846002106F080F968B9094B03EB84032846596A06F05AF938B90134E4B2022CBD
:4055C000ECD9002070BD012070BD012070BD00BFA887FF1F72B6034B1A781043187062B6704700BF0987FF1F70B584B0044601238DF80F304378432B1ED003D84BB1242B0A
:405600005ED119E04A2B08D0582B15D0472B57D112E0FBF74FFD0025E1E1AA4B1B7813B1202B40F0A181A3783D2B40F09F812046FCF706FC0546D2E1A378002B40F0988138
:405640006378432B15D002D8242B05D092E1472B0BD0582B22D08DE19A4B1D7815F0180540F08A81FBF72EFDB9E1FBF75FFE0025B5E1944B1D78022D06D100F077FC0520C1
:40568000FBF7BAFC0025AAE1002D40F0778102228C4B1A700420FBF7AFFCA0E1894B1B78012B40F06D81FFF72DFF0546002840F069810320FBF7A0FC0022824B1A708EE17D
:4056C000804B1B78012B00F25F816278233A302A00F2FC80DFE812F03100FA00FA00FA00FA00FA00FA00FA00FA00FA00FA00FA00FA00FA00FA00FA00FA00FA00FA00FA00C7
:40570000FA00FA00FA00FA00FA00FA00FA00FA00FA00FA00FA00FA00FA00FA00FA00FA00FA0039008600FA00FA00FA00FA00D500FA00FA00FA00AA007500A378002B40F0D0
:405740002581FBF7A3FD002549E15F4B93F8483013F0100F00F01C81FFF7D4FE0646002840F018810422574B1A70A37813B900F06FFB15E0E278002A40F00E81592B08D01A
:405780005A2B0AD0582B40F00981012000F060FB06E0022000F05CFB02E0042000F058FB484B5D78002D40F0FB8000221A70FEF7E5FFA378002B40F012812046FFF7A4FE7D
:4057C0000DE1A3784C2B40F0ED80E378502B40F0EB802379002B40F0E9808020FFF7FAFE0025FCE002238DF80F30A3783BB92046FCF7D0F82046FBF74DFE0025EFE0032356
:405800008DF80F30A3783D2B40F0D2809DF80F30DA1EE15CA1545A1C8DF80F20E35C002BF4D12046FCF706F80025D8E0A378532B40F0C080E378542B40F0BE8023793D2BBF
:4058400040F0BC80A379002B40F0BA806379242B05D02A2B0BD0232B40F0B48003E00120FCF70AF806E00220FCF706F802E0FF20FCF702F80920FBF7BFFB00F077FB0025ED
:40588000ADE002228DF80F20A27882B114E028462146FCF767F818B90720FBF787FB03E028462146FBF7D2FD0135EDB200E00025012DECD9002592E0002B40F0858001254C
:4058C00005E000BFF486FF1FA887FF1F002520460DF10F0102AAFDF7F7FC002876D09DF80F20531CDBB28DF80F30A25C3D2A6FD1EDB19DF80F20D11AA05C6054511C8DF86D
:405900000F10A25C002AF4D12046FCF799FA0546002864D1029805F077F903F097FB05F089FCC0B22146FBF779FF002557E020460DF10F0101AAFDF7C7FC00284AD09DF87D
:405940000F30E35C002B47D1029C2046254905F0ABFF002842D1204605F0D6FFC0B20199FCF76EF805463AE0082538E0032536E0032534E0002532E0082530E008252EE0B2
:4059800000252CE00D252AE0082528E0032526E0052524E00D2522E0032520E003251EE035461CE003251AE0032518E0032516E0032514E0032512E0032510E003250EE02C
:4059C00003250CE003250AE0082508E0022506E0032504E0022502E0032500E00325284604B070BD00007F4372B6034A137823EA0000107062B670470987FF1F72B6024B8A
:405A0000187062B6704700BF2487FF1F72B60022014B1A7062B670472487FF1F72B6034B1A781043187062B6704700BF0887FF1F72B60022014B1A7062B67047F086FF1F2E
:405A400072B60022014B1A7062B670470887FF1F38B504460D46104B93F8483013F0200F05D00E4B1B78202B01D0FDF70DFC0B4B1B78022B0ED0FEF7CBFC084B5B784BB9BC
:405A8000FDF798FE10B1FEF7D5F9F4E720462946FDF716FF38BD00BFA887FF1FF486FF1F2DE9F04F91B00F900591154608921E469DF86C709DF870409DF874100991BB003E
:405AC00002EB030B06EB030956F8278052F82700414605F025FC0690A3002A461D44F3180D9356F8246052F82400314605F018FC079008F100429246009206F100460F9B13
:405B000053F82700069905F009FC80460F9B53F82400079905F002FC04465046214605F007FD07463046414605F002FD0146384605F0F4FB07465046414605F0F9FC8046A7
:405B40003046214605F0F4FC0146404605F0E8FB0446384605F058F8CDE90201204605F053F802460B46DDE9020103F0A9FA05F081FB80469DF87830A3B105F045F8CDE9AA
:405B800002019FA3D3E9002305F018FBF0B1DDE902019DA3D3E9002304F0D6FE05F06AFB804613E005F030F8CDE9020198A3D3E9002305F0F9FA48B1DDE9020192A3D3E9CA
:405BC000002304F0C3FE05F055FB8046404605F01BF80022924B05F06BF8CDE902011A9805F012F802460B46DDE9020105F060F8824621F000441A98014605F091FB894B59
:405C0000DF6B394605F08AFB0146384605F090FC0746384604F0F8FF03F054FA02460B465046214605F06EF903F0A2F805F002FB1FFA80FABAF1000F00F0DA80059B1C7AA6
:405C400014F0080F0BD0504605F01EFC0146059F386805F06DFC386024F008043C72504605F012FC04464046214605F015FD80460E900899099A01EB82070F9B18461346E5
:405C800050F8220051F8231005F048FB214605F003FD09904046414605F04AFC01464FF0804005F03BFB0446404604F0ADFF5AA3D3E9002304F0FCFFCDE90201204604F0CA
:405CC000A3FF0022584B04F041FE02460B46DDE9020104F0EDFF05F0CDFA0A9020464FF07C5105F025FC0B904FF0000801242B464D4699467AE0B8F10B0F21D800980A99AF
:405D000005F016FC029030460B9905F011FC0146029805F005FB029000980B9905F008FC009030460A9905F003FC0146009805F0F5FA009008F101085FFA88F8029E3BE08B
:405D4000204605F0A1FB0E9905F0F2FB04F05CFFCDE9000102F0C4FF05F08CFA8046DDE9000103F029F905F085FA02902E6806F100463046CDF83080414605F0D9FB009027
:405D80000D9BD3F800804046029905F0D1FB0146009805F0C5FA00900298314605F0C8FB06460C98414605F0C3FB0146304605F0B5FA06464FF000080698009905F0B0FA2E
:405DC000CBF800000798314605F0AAFAC9F800003868099905F0A4FA386008980599FFF737FE124B5B783BB90134A4B2544582D30F980599FFF72CFE11B0BDE8F08F00BFF4
:405E00008DEDB5A0F7C6A0BE182D4454FB2119408DEDB5A0F7C6A03E4BDA7D5C5555C53F0000E03FA887FF1F00001040F486FF1F064B1B78022B08D010B50446FEF7B4FB20
:405E400020460021FDF7CCFA10BD7047F486FF1F10B50446FDF79CF81CB12046FDF7B6F808E00420FDF7B2F80120FDF7AFF80220FDF7ACF8FEF7CCFA044B5B782BB9FBF786
:405E8000D5FFFDF7A9FEFDF789F810BDF486FF1FF8B5324B1B78022B59D016460D460446FEF782FB2D4B5B78002B52D106F01007FFB20022294B5A71C6F3C000FDF79AFF5D
:405EC000FDF79AFF48B10420FFF798FDFEF7A0FA0020FDF78FFF0220F8BD20462946FFF7B7FD01221E4B1A700220FFF773FBFEF78FFA1A4B5B7873BB184B1B78002BF6D17E
:405F0000174B1B78DBB2012B0AD12FB1154B164A07CA83E8070006E00520FFF76FFD02E001220E4B5A7100200D4B1870FDF762FFFEF76EFAFEF76CFDFDF7E2FBFDF74CFE40
:405F4000FBF786F9054B587930B10120F8BD0020F8BD0220F8BD0220F8BD00BFF486FF1F0A87FF1F0C87FF1F1887FF1F08B5134B1B7813F0100F20D11020FFF72BFBFEF7DF
:405F800035FBFBF705FF0E4B1B7813F02C0F04D10B4A127912F0060F0FD0042B08D1094B1B7813F0FF0F06D10620FFF727FD02E00320FFF723FDFEF7E1FB08BD0987FF1F70
:405FC000F486FF1F2487FF1F38B504460D46CB680360037A43F004030372114B93F8483013F0200F04D001F13400FFF7D3FA90B905F134002146FFF72BFD0A4B1C7864B9A8
:40600000FDF7B4FB50B12022064B1A70FEF778FDFEF79AFB02E00F2400E00024204638BDA887FF1FF486FF1F08B505F08DFC03680C2B00D1FEE7FEE708B5094B1A681044F3
:40604000084BC31A802B02DC054B186005E005F07BFC0C2303604FF0FF32104608BD00BF1C81FF1F7889FF1F08B5104E104D16E029686B68AC68002204E051F8040B43F819
:40608000040B0432A242F8D1E868002203E0002143F8041B04328242F9D11035013E002EE6D105F057FCF9F7EDFFFEE701000000FCEA000008B5124A124B1A60124A13683A
:4060C00043F40073136000230AE0032B03D80F4A52F8231000E00E490E4A42F8231001332F2BF2D90C4B1A780C4B1A70094A0C4B1A6000F0DFF800220A4B1A6008BD00BF18
:406100000004FA050CED00E014ED00E000000000296000000080FF1FBC7600400481FF1F08ED00E00081FF1FFEE700BFF0B40022174611E050F82760F3B226F0FF0608E0C3
:4061400001EB420511F812406D78A5550132013BDBB2002BF4D10137232FEBD9F0BC7047064B1B78DBB203F00701054A11701B09013213704422034B1A707047CF010049F1
:406180006E5800407658004008B50A46002105F022FC08BD08B505F013FC08BD08B505F00FFC08BD38B51322334B1A80192502331D705F2202331A8002331D7040F2E73226
:4061C00002331A801B232D4A137042F20F722C490A8002310B7002310A802A4A137043F2D3010232118002321370274827490422FFF7D0FF0622264B1A705222A3F5807311
:406200001A70244B1B78DBB2234A13704FF4E162224B1A8041F25122023B1A8000240CE01F4B1B7803F0010343EA440404F003044FF4F07002F0CCFA013D0DB1032CEFD191
:4062400015B90320FFF770FF164A4FF48073138007231370002314490B704820023108701370053213700222104B1A70104A137843F03F03137038BD804000408A400040C2
:406280008C400040924000400041004038DE0000004300400F010049A14600402242004025420040044000400640004001400040A243004038B572B63B4A137843F00403CC
:4062C00013703A4A137843F00203137000240AE0374963001A1952000A4450681189FFF753FF0134E4B2072CF2D9314C04F1340004F1C401FFF71AFF2E4A137843F0020380
:4063000013701032137843F0020313702A4D2B7843F040032B70A2F58632513A137843F010031370254804F5D5610822FFF732FF234804F5D6610A22FFF72CFF214804F2C5
:40634000BC610A22FFF726FF1F4804F5D9610822FFF720FF1D4804F5DA610A22FFF71AFF1B4804F2DC610A22FFF714FF194804F5DD610A22FFF70EFF4422174B1A70174AC7
:40638000137843F008031370154C00232370FFF709FF80232370FFF7E3FE124829460E22FFF7FCFE38BD00BFE84600400800084038DE000003500140A043004002510040B4
:4063C000F05100401051004022510040405100405051004060510040DB0801402243004000480040B043004010B50C4C237803F03F032370237803F0E10323702378400041
:40640000C0B2184340F020002070012000F064F9237803F0DF03237010BD00BF4051004038B505460F4C237843F040032370237803F07F032370002000F04EF9237803F022
:40644000E103237023786D00EDB21D4345F020052570012000F040F9237803F0DF03237038BD00BF4051004070B5344B1A7802F001021A7032490A7802F0E10242F01E0204
:406480000A7001310A7802F0E1020A7001310A7802F0E1020A701A7802F0BF021A701A7842F080021A704FF4CA76002000F014F9224D2B7843F020032B70012000F00CF904
:4064C000204B1C78E4B22B7803F0DF032B70002000F002F904F01004E4B22B7843F020032B70012000F0F8F82B7803F0DF032B7014B90A2000F0F0F8013E0CB1002ED4D105
:406500000E4B1A7802F07F021A701A7802F001021A700B4A137803F0E10313700132137803F0E10343F01E0313700132137803F0E10343F01E03137070BD00BF4051004093
:40654000425100404151004010B50446FFF78CFF2009FFF765FF04F00F00FFF761FF10BD38B505460078012404E0FFF7EDFF285D0134E4B20028F8D138BD00BF08B5FFF7FA
:40658000E3FF08BD10B50446FFF76EFF2009FFF72BFF04F00F00FFF727FF10BD08B5282000F084F80320FFF71FFF052000F07EF80320FFF719FF0F2000F078F80320FFF781
:4065C00013FF012000F072F80220FFF70DFF052000F06CF80620FFF7D5FF0E20FFF7D2FF2C20FFF7CFFF0820FFF7CCFF0120FFF7C9FF0C20FFF7C6FF0320FFF7C3FF0520CD
:4066000000F054F8014800F039F808BD2CE5000008B50C20FFF7B6FF0122014B1A7008BDD086FF1F08B5054B5B7823B9FFF7B6FF0122024B5A70FFF7EBFF08BDD086FF1F5E
:4066400008B5032819D8DFE800F002070D1381F08000FFF797FF08BDA1F14000C0B2FFF791FF08BDA1F16C00C0B2FFF78BFF08BDA1F12C00C0B2FFF785FF08BD38B5054634
:40668000FFF7F2FE4020FFF77DFF002404E0285DFFF75AFF0134E4B23F2CF8D9FFF7E4FE8020FFF76FFF38BD01BE704710B5044605E0084B186802F08BF8A4F50044B4F536
:4066C000004FF6D8034B586800FB04F002F080F810BD00BF2081FF1F08B5034B1B7A03FB00F002F075F808BD2081FF1F70B504460E46074B1D681F2802D90020FFF7D4FFB5
:4067000004F01F04103455F8240045F8246070BD08ED00E038B504460D46072902D90020FFF7C2FF1F2C02D90020FFF7BDFF04F01F0000F1604000F564406D01EDB20570A7
:4067400038BD00BF134B1B78DBB20360124A127843EA02230360114A127843EA024303600F4A127843EA026303600E4B1B78DBB243600D4A127843EA022343600B4A127886
:4067800043EA024343600A4A127843EA02634360704700BF0301004904010049EC460040020100490101004900010049050100490601004908B502F08DF802F095F808BD36
:4067C00008B5FFF7F7FF08BD30B583B00C468DF8070002F0C9F8B4F5006F54D22509C5EB053319010C44A4B202F06AF900284CD1402021460DF10702012302F0E1F80446CD
:4068000007282FD1234B1B7813F0020FFAD0214B1B7813F0020F06D01E4B1B789B0805D04FF0FF3403E04FF0FF3400E00024E4B9194B402029461A785B7802F0FDF80728D7
:4068400016D1144B1B7813F0020FFAD0114B1B7813F0020F0FD00F4B1B789B0810D04FF0FF340DE0012809D10AE04FF0FF3407E04FF0FF3404E04FF0FF3401E04FF0FF344F
:4068800002F044F902E0012400E00424204603B030BD00BF224700404889FF1F38B5044601F0B5FF054602F049F804F1804000F500400478E4B202F04FF8284601F0ABFFA5
:4068C000204638BD014B1870704700BF7B650040054A137843F0020313701032137843F002031370704700BFA2430040014B1870704700BF7B640040014B1B68986570472F
:4069000008ED00E04001C0B2014B1870704700BF06E400E04022014B1A60704700E100E04022014B1A60704780E100E010B50446FFF7F6FF2046FFF7DFFF0720FFF7E2FFC9
:40694000FFF7E8FF10BD00BF08B5FFF7E9FF0248FFF7D2FF08BD00BF29600000014B1B68D864704708ED00E04001C0B2014B1870704700BF03E400E00822014B1A607047F3
:4069800000E100E00822014B1A60704780E100E010B50446FFF7F6FF2046FFF7DFFF0720FFF7E2FFFFF7E8FF10BD00BF0822014B1A60704780E200E0014B1878704700BF58
:4069C0006A65004008B501F022FF044A137843F01003137001F01FFF08BD00BF9A650040014B1878704700BF6E64004008B501F00EFF044A137843F01003137001F00BFF89
:406A000008BD00BF9E64004008B501F000FF044A137803F0EF03137001F0FDFE08BD00BF9E640040014B1878704700BF6B650040014B1870704700BF79640040084A13784A
:406A400043F0010313701032137843F00103137002F64D32137843F001031370704700BFA3430040014B1880704700BF044F0040014B1880704700BF064F0040014B1870CD
:406A8000704700BF034F004008B5194A137843F0020313700232137803F08F0343F010031370144B1A7802F0CF021A701A7842F030021A701A7802F0F0021A701A7842F0D9
:406AC0000F021A70FF20FFF7CDFF8020FFF7D0FF0020FFF7D3FF084A137843F00103137002F65E32137843F00103137008BD00BF004F00400B4F0040A343004008B5054B89
:406B00001B7823B9FFF7C0FF0122024B1A70FFF795FF08BDD286FF1F044A137803F0FD03400000F0020018431070704720510040024B1878C0F34000704700BF2151004039
:406B4000024B1878C0F38000704700BF21510040084A137843F0020313701032137843F00203137002F65932137843F001031370704700BFA3430040084A137803F0FE0388
:406B80001370A2F66932137803F0FD0313701032137803F0FD031370704700BF0C4F0040014B1870704700BF0F4F0040014B1878704700BF0F4F0040014B1880704700BF98
:406BC000104F0040014B1880704700BF124F004008B5164A137803F0010313700232137803F0FC031370124B1A7802F0CF021A701A7842F030021A701A7802F0F0021A70E9
:406C00001A7842F00F021A700A4A137843F0010313704FF6FF70FFF7CFFF4FF6FF70FFF7D1FF0820FFF7BCFF08BD00BF0C4F0040174F00400D4F004008B5054B1B7823B9B4
:406C4000FFF7C6FF0122024B1A70FFF781FF08BDD386FF1F024B1B68C3F88800704700BF08ED00E04001C0B2014B1870704700BF12E400E04FF48022014B1A60704700BF5B
:406C800000E100E04FF48022014B1A60704700BF80E100E010B50446FFF7F4FF2046FFF7D9FF0720FFF7DEFFFFF7E4FF10BD00BF014B1B685865704708ED00E04001C0B25B
:406CC000014B1870704700BF05E400E02022014B1A60704700E100E02022014B1A60704780E100E010B50446FFF7F6FF2046FFF7DFFF0720FFF7E2FFFFF7E8FF10BD00BF66
:406D0000044A137803F0EF03000100F0100018431070704750510040024B1878C0F30010704700BF51510040044A137803F0DF03400100F0200018431070704750510040B7
:406D4000024B1878C0F34010704700BF5151004008B500F05FF8A0F5004000B208BD00BF08B5002803DB80B280F4004002E0A0F5004080B200F048F808BD00BF024B1878A9
:406D800000F00F00704700BF6B640040014B1870704700BF8B64004008B50F20FFF7F6FFFFF7ECFF01F033FD034A137843F01003137001F030FD08BD9B64004008B500F08D
:406DC0007BF84FF4004000F01FF8044B1B7813B90122024B1A70FFF7DFFF08BDD486FF1F024A137843F080031370704778650040014B1870704700BF89640040014B1878A6
:406E0000704700BF69640040014B1880704700BF106A0040024B1B78024B188880B2704708650040906A0040014B188880B27047906A0040014B1880704700BF506A0040BB
:406E4000014B1880704700BF706A004008B501E0FFF7EAFFFFF7D2FF10F0400FF8D108BD08B5134B1A7802F0F8021A701A7802F0FC021A70FFF7EAFF4FF40040FFF7DAFF1D
:406E80004FF40040FFF7C0FF0020FFF7B1FFFFF7B5FF4FF40040FFF7D3FF01F0B8FC054A137843F01003137001F0B5FC08BD00BF786500409964004008B5054B1B7823B99B
:406EC000FFF7CEFF0122024B1A70FFF789FF08BDD586FF1F014B1B681865704708ED00E04001C0B2014B1870704700BF04E400E01022014B1A60704700E100E01022014B8E
:406F00001A60704780E100E010B50446FFF7F6FF2046FFF7DFFF0720FFF7E2FFFFF7E8FF10BD00BFF8B501F072FC0746404A137843F0010313701032137843F00103137095
:406F400001263C4B1E700225943B1D7002F5E2521B32137803F07F0313700020FFF7BCFB354C237803F0F9032370344A137803F0DF0313702378334323703046FFF7ACFBD4
:406F80002820FFF7A9FB2E4B1A7802F07F021A701A7802F0BF021A7023782B4323702846FFF79AFB237843F0040323700024254B1C7001331C70384601F02DFC1720072144
:406FC000FFF7A8FB17202049FFF790FB18200721FFF7A0FB18201D49FFF788FB15200721FFF798FB15201A49FFF780FB20460721FFF790FB20461749FFF778FB3046072104
:40700000FFF788FB30461449FFF770FB28460721FFF780FB28461149FFF768FB0C200721FFF778FB0C200E49FFF760FBF8BD00BFA54300409D600040944300401260004048
:40704000F851004084600040F57A0000D9780000F17A00004D7A00007D7A0000B17A0000857D000010B5002304E00124244AD4542344DBB2012BF8D9224B18700023224A51
:407080001370224A1370224A1370224A1370224A1370224A1370224A1370224B4FF400021A604FF080721A604FF400121A6001221A6002221A6004221A6011B1012906D070
:4070C0000BE0194A137803F0FE0313700AE0164A137843F00103137004E0134A137843F0010313700322114B1A708022203B1A70012001F06DFB04220D4B1A7010BD00BF8B
:407100003C89FF1FA188FF1FA488FF1FC088FF1FC388FF1FB888FF1FC288FF1FC588FF1FA088FF1F00E100E009600040286000401260004038B505460C46064B1B7823B967
:40714000FFF7F0FE0122034B1A7028462146FFF789FF38BDD686FF1F002304E001210E4AD1540B44DBB2012BF8D900230B4A13700B4A13700B4A13700B4A13700B4A137094
:407180000B4A13700B4A137003220B4B1A708022203B1A70704700BF3C89FF1FA488FF1FC088FF1FC388FF1FB888FF1FC288FF1FC588FF1FA088FF1F28600040014B187806
:4071C000704700BFC388FF1F064B1B7813F0FF0F05D0044B1878C0B200221A7070470020704700BFC088FF1F431EDBB2072B0BD8064B00011A18185C00F00F00537843EA44
:407200000020023880B2704700207047FC5F0040431EDBB2072B3BD8F0B4074600EB40039B001C4C2344DB889BB2C3F500739A4207D900EB40039B002344DA88C2F500728B
